:100000000C9434000C943E000C943E000C943E0082
:100010000C943E000C943E000C943E000C943E0068
:100020000C943E000C943E000C943E000C943E0058
:100030000C943E000C943E000C943E000C943E0048
:100040000C943E000C943E000C943E000C943E0038
:100050000C943E000C943E000C943E000C943E0028
:100060000C943E000C943E0011241FBECFEFD8E04C
:10007000DEBFCDBF0E94B7000C94CA010C940000F3
:100080000F93FC01808191818130910511F5A5B11B
:10009000028121E030E040E050E060E070E080E08C
:1000A00090E00E94B101A22BA5B9808191810297B5
:1000B00071F4ABB1028121E030E040E050E060E05B
:1000C00070E080E090E00E94B101A22BABB90F91EB
:1000D0000895892B51F7A8B1028121E030E040E07A
:1000E00050E060E070E080E090E00E94B101A22B5F
:1000F000A8B9DBCF0F93FC018081918181309105FC
:1001000021F5A5B1028121E030E040E050E060E05F
:1001100070E080E090E00E94B10120952A2325B98B
:1001200080819181029779F4ABB1028121E030E0C6
:1001300040E050E060E070E080E090E00E94B101BB
:1001400020952A232BB90F910895892B49F7A8B13F
:10015000028121E030E040E050E060E070E080E0CB
:1001600090E00E94B10120952A2328B9D9CFCDB7BC
:10017000DEB768970FB6F894DEBF0FBECDBF81E043
:1001800090E09F8B8E8B22E0288F9C8B8B8B33E0B3
:100190003D8B998B888B44E04A8B9E878D8785E0C9
:1001A0008F8782E090E09B878A873C8798878F8340
:1001B00019869D838C8331E03E839A8389832B83C8
:1001C000CE0146960E9440002FEF85EA9EE0215026
:1001D00080409040E1F700C00000CE0146960E94AA
:1001E0007A002FEF81EE94E0215080409040E1F7BB
:1001F00000C00000CE0107960E9440002FEF89E664
:1002000098E1215080409040E1F700C00000CE010D
:1002100007960E947A002FEF89E698E121508040EE
:100220009040E1F700C00000CE0143960E944000DC
:100230002FEF81EE94E0215080409040E1F700C024
:100240000000CE0143960E947A002FEF81EE94E0E9
:10025000215080409040E1F700C00000CE01409660
:100260000E9440002FEF81EE94E0215080409040AA
:10027000E1F700C00000CE0104960E9440002FEF7D
:1002800089E698E1215080409040E1F700C00000ED
:10029000CE0140960E947A002FEF81EE94E021502B
:1002A00080409040E1F700C00000CE010D960E9412
:1002B00040002FEF81EE94E0215080409040E1F724
:1002C00000C00000CE0104960E947A002FEF89E65C
:1002D00098E1215080409040E1F700C00000CE013D
:1002E0000D960E947A002FEF81EE94E0215080401D
:1002F0009040E1F700C00000CE0101960E9440004E
:10030000CE010A960E9440002FEF81EE94E021502A
:1003100080409040E1F700C000002FEF89E698E1AF
:10032000215080409040E1F700C00000CE010196CE
:100330000E947A002FEF81EE94E02150804090409F
:10034000E1F700C00000CE010A960E947A002FEF6C
:1003500081EE94E0215080409040E1F700C0000021
:100360002FCF002E083090F0982F872F762F652FF3
:10037000542F432F322F22270850F4CF220F331F40
:10038000441F551F661F771F881F991F0A95B2F7D4
:08039000002D0895F894FFCF41
:00000001FF
